:03000000020B5898
:0C0B5800787FE4F6D8FD7581200209C802
:100A2D0032300053554E2C004D4F4E2C0054554531
:100A3D002C005745442C005448552C004652492C47
:0C0A4D00005341542C0054696D652000DA
:08098F00D2A7C2A57F057E007E
:10099700D3EF9400EE6480948040257DFAEDD394E4
:1009A700007480948040031D80F37DF8EDD394009C
:1009B7007480948040031D80F3EF1F70D31E80D096
:0109C700220D
:070B1C007F01120B237F8013
:0A0B23008F80C2A612098FC2A7221C
:050B2D00120B23AF04D0
:0A0B32008F80D2A612098FC2A722FD
:100A82008B138A148915AB13AA14A915120ADD60F7
:100A9200130515E5157002051414F9120ADDFF128B
:050AA2000B3280E2228E
:100B0A007F38120B237F0C120B23120B1C7FC0029F
:020B1A000B23AB
:1009C800120B3CE4FD7F80120B4B7D407F82120BA3
:1009D8004B7D017F84120B4B7D217F8C120B4B7D4D
:1009E800107F88120B4B7D087F86120B4B7D067F8C
:0909F8008A120B4B120AA780FBC6
:10092D007F85120A018F0B7F83120A018F0C7F8145
:10093D00120A018F0D7F8D120A018F0E7F89120A07
:10094D00018F097F87120A018F0A7F8B120A018F8F
:10095D00087D68AF0B1208007D6DAF0C1208007D8D
:10096D0073AF0D1208007D62AF081208007D79AFDC
:10097D000E1208007D63AF091208007D64AF0A02F4
:02098D00080060
:100A59008F20D2B5E4F511C3E51194087480948010
:100A69005016A20092B4120AF6C2B6120AF8E5208C
:080A7900C313F520051180DF15
:010A81002252
:100A0100120A59E4F510C3E51094087480948050DB
:100A110016E520C313F520A2B49207120AF6C2B656
:0B0A2100120AF8051080DFC2B5AF20FC
:010A2C0022A7
:0F0B3C00120B64120B0AC2B5C2B6D2B4020AC4BD
:0C0B6400758921758DFD759850D28E2288
:100AC400E4F510C3E510940E74809480500AE4FD9C
:080AD400FF120AFC051080EB83
:010ADC0022F7
:060AF600D2B6E4FD7FFF13
:0E0AFC008F8C8D8AD28C308DFDC28CC28D22E3
:040800008F108D11B7
:10080400E51054F0C4540FFC430430E510540FF5C4
:1008140012431230E511B468137F85120B2D7F86C5
:10082400120B23AF12120B327F878016E511B46DC1
:10083400197F88120B2D7F89120B23AF12120B32F2
:100844007F8A120B237F3A0208BBE511B4730E7F33
:100854008B120B2D7F8C120B23AF12805AE511B42F
:1008640064187FC5120B2D7FC6120B23AF12120B17
:10087400327FC7120B237F2D803DE511B463187FAF
:10088400C8120B2D7FC9120B23AF12120B327FCA71
:10089400120B237F2D8020E5116479701D7FCB120C
:1008A4000B237BFF7A0A792D120A827FCD120B2D3E
:1008B4007FCE120B23AF12020B32E5116462706813
:1008C4007FC0120B23E510640170087BFF7A0A795C
:1008D400308052E510640270087BFF7A0A79358013
:1008E40044E510640370087BFF7A0A793A8036E5A0
:1008F40010640470087BFF7A0A793F8028E510644D
:100904000570087BFF7A0A7944801AE51064067042
:10091400087BFF7A0A7949800CE510640770097B2B
:08092400FF7A0A794E120A82E3
:01092C0022A8
:100AA7007F01120B2320B114120B1C7BFF7A0A79EA
:0D0AB70053120A8230B00512092D80F8227A
:0D0B4B008D10120A59AF10120A59C2B522BE
:100ADD00BB010689828A83E0225002E722BBFE0217
:090AED00E32289828A83E493224A
:00000001FF
