:10085B00414242415320414C49200046524F4D20CA
:10086B0050455348415741520053757065725F565E
:10087B0069736F7200556D6572205368617269669A
:05088B0020536972001A
:10089000D3EF9400EE6480948040257DFAEDD394EC
:1008A000007480948040031D80F37DF8EDD39400A4
:1008B0007480948040031D80F3EF1F70D31E80D09E
:0108C0002215
:0908E6007F207E031208907F01BF
:1008EF008F80C2A6C2A5D2A77F057E00120890C234
:0208FF00A7222E
:10092E008F80D2A6C2A5D2A77F017E00120890C2E8
:02093E00A722EE
:1008C1008B088A09890AAB08AA09A90A12090160D9
:1008D10013050AE50A7002050914F9120901FF124C
:0508E100092E80E22257
:10091A007F0C1208EF7F381208EF7F011208EF7F71
:04092A00800208EF50
:1008000012091A7BFF7A08795B1208C17FFA7E0011
:100810001208907F801208EF7FC01208EF7BFF7AEA
:100820000879661208C11208E67BFF7A087974120B
:1008300008C17FFA7E001208907FC01208EF7BFF8C
:100840007A0879801208C11208E67F3112092E7FDA
:0B085000207E031208907F010208EFD9
:03000000020940B2
:0C094000787FE4F6D8FD75810A020800FB
:10090100BB010689828A83E0225002E722BBFE02F4
:09091100E32289828A83E4932227
:00000001FF
