:1009470008211C1814100C0804000A2D3F065B4FE1
:0F095700666D7D077F67012900013A00013B00B3
:100967001209B17FA01209221209777F0512092205
:07097700D2A10000C2A12281
:0B09B100D2A0D2A10000C2A0C2A1226F
:0B09BC00C2A0D2A10000D2A0C2A12264
:10092200D2A0E4FBFAEF3392A0D2A10000EF25E0BF
:10093200FFC2A10BBB00010AEB64084A70E7A2A048
:040942009200C2A0BD
:01094600228E
:1008F000D2A0E4F53CFFFED2A1A2A0E433423C002A
:1009000000C3EF9407EE94005006E53C25E0F53C6B
:10091000C2A10FBF00010EEF64084E70DAC2A0AF93
:010920003C9A
:0109210022B3
:10097E001209671209727F061209221209771209EB
:04098E00BC02097727
:10088C001209671209B17FA1120922120977120805
:10089C00F08F381209771208F08F39120977120984
:1008AC00BCE5386405701A75A018F53AC3E53A949E
:1008BC000F748094805007120992053A80EE852DB2
:1008CC0080E5396406701A75A018F53AC3E53A94B8
:1008DC000F748094805007120992053A80EE852E91
:0408EC008002097706
:0D09A400E4F52BF52C12097E12088C80F86A
:10099200758901E4F58CF58AD28C308DFDC28CC24A
:0209A2008D22A4
:03000000020800F3
:0C080000787FE4F6D8FD75813C020847C3
:10080C000209A4E493A3F8E493A34003F68001F255
:10081C0008DFF48029E493A3F85407240CC8C333ED
:10082C00C4540F4420C8834004F456800146F6DFBC
:10083C00E4800B0102040810204080900947E47EFC
:10084C00019360BCA3FF543F30E509541FFEE493B1
:10085C00A360010ECF54C025E060A840B8E493A378
:10086C00FAE493A3F8E493A3C8C582C8CAC583CAA3
:10087C00F0A3C8C582C8CAC583CADFE9DEE780BE5B
:010966000090
:00000001FF
