:030000000208A84B
:0C08A800787FE4F6D8FD7581070208B4E3
:03001300020800E0
:10080000C0E0C0F0C083C082C0D075D000C000C0BE
:1008100001C002C003C004C005C006C007B2A37F68
:10082000F47E01120882D007D006D005D004D00390
:10083000D002D001D000D0D0D082D083D0F0D0E090
:010840003285
:03000300020841AF
:10084100C0E0C0F0C083C082C0D075D000C000C07D
:1008510001C002C003C004C005C006C007B2A27F28
:10086100F47E01120882D007D006D005D004D0034F
:10087100D002D001D000D0D0D082D083D0F0D0E04F
:010881003244
:0908B40075A885C2A0C2A180FA5A
:10088200E4FDFCD3ED9FEE6480F8EC648098501593
:10089200E4FBFA0BBB00010AEB647B4A70F50DBD69
:0508A20000010C80DEE6
:0108A700222E
:00000001FF
