:03000B00020800E8
:10080000C0E0758CB7758AFD0509E5097002050819
:10081000640145087009C2A4C2A3C2A27580FFE5A5
:1008200009640245087009C2A4C2A3D2A27580FF60
:10083000E509640345087009C2A4D2A3C2A2758069
:10084000FFE509640445087009C2A4D2A3D2A275C9
:1008500080FFE509640545087009D2A4C2A3C2A2BD
:100860007580FFE509640645087009D2A4C2A3D2C9
:10087000A27580FFE509640745087009D2A4D2A3D8
:10088000C2A27580FFE50964084508700DD2A4D2A4
:0D089000A3D2A27580FFF508F509D0E03273
:10089D0075A882758901758CB7758AFDD28C80FE1D
:030000000208AD46
:0C08AD00787FE4F6D8FD75810902089DF3
:00000001FF
