:0809CB0002080000021F0000F9
:030023000208E6EA
:1008E600C0E0C0D075D000C00030982385990E7442
:1008F6000F2509F8A60E85080A85090BE50E640D75
:100906007005F50C750D01751F00752001C298055F
:0E09160009E50970020508D000D0D0D0E0320B
:10092400D3EF9400EE6480948040257DFAEDD39457
:10093400007480948040031D80F37DF8EDD394000F
:100944007480948040031D80F3EF1F70D31E80D009
:010954002280
:1009A7008F80C2A6C2A5D2A77F057E00120924C2E6
:0209B700A72275
:1009B9008F80D2A6C2A5D2A77F017E00120924C2C8
:0209C900A72263
:100955008B238A248925AB23AA24A92512097A6029
:10096500130525E5257002052414F912097AFF12ED
:0509750009B980E22237
:100993007F0C1209A77F381209A77F011209A77FCD
:0409A300800209A71E
:10088C0075A890120993758920758DFD759850D2B5
:10089C008EE50D6401450C70F8F521F522C3E522B7
:1008AC00950BE50A6480F8E521648098501D740F5F
:1008BC002522F8E6FF1209B9E4F50CF50DF508F55B
:1008CC00090522E52270D6052180D2E52064014578
:0A08DC001F70BE7FC01209A780B78D
:03000000020800F3
:0C080000787FE4F6D8FD758125020847DA
:10097A00BB010689828A83E0225002E722BBFE027B
:09098A00E32289828A83E49322AE
:10080C0002088CE493A3F8E493A34003F68001F26E
:10081C0008DFF48029E493A3F85407240CC8C333ED
:10082C00C4540F4420C8834004F456800146F6DFBC
:10083C00E4800B01020408102040809009CBE47E78
:10084C00019360BCA3FF543F30E509541FFEE493B1
:10085C00A360010ECF54C025E060A840B8E493A378
:10086C00FAE493A3F8E493A3C8C582C8CAC583CAA3
:10087C00F0A3C8C582C8CAC583CADFE9DEE780BE5B
:0109D3000023
:00000001FF
