:1009360008211C1814100C0804000A2D3F065B4FF2
:0F094600666D7D077F67012900013A00013B00C4
:100956001209987FA01209111209667F0512091162
:07096600D2A10000C2A12292
:0B099800D2A0D2A10000C2A0C2A12288
:0B09A300C2A0D2A10000D2A0C2A1227D
:10091100D2A0E4FBFAEF3392A0D2A10000EF25E0D0
:10092100FFC2A10BBB00010AEB64084A70E7A2A059
:040931009200C2A0CE
:01093500229F
:1008DF00D2A0E4F53CFFFED2A1A2A0E433423C003B
:1008EF0000C3EF9407EE94005006E53C25E0F53C7D
:1008FF00C2A10FBF00010EEF64084E70DAC2A0AFA5
:01090F003CAB
:0109100022C4
:0C098C001209561209611209A302096643
:10088C001209561209987FA1120911120966120851
:10089C00DF8F381209661209A3E53864057031F54B
:1008AC0029C3E529940A74809480502475A018E417
:1008BC00F53AC3E53A940F74809480500712096D91
:1008CC00053A80EE742D2529F8E6F580052980D1AE
:0308DC00020966A8
:0D097F00E4F52BF52C12098C12088C80F881
:10096D00758901E4F58CF58AD28C308DFDC28CC26F
:02097D008D22C9
:03000000020800F3
:0C080000787FE4F6D8FD75813C020847C3
:10080C0002097FE493A3F8E493A34003F68001F27A
:10081C0008DFF48029E493A3F85407240CC8C333ED
:10082C00C4540F4420C8834004F456800146F6DFBC
:10083C00E4800B0102040810204080900936E47E0D
:10084C00019360BCA3FF543F30E509541FFEE493B1
:10085C00A360010ECF54C025E060A840B8E493A378
:10086C00FAE493A3F8E493A3C8C582C8CAC583CAA3
:10087C00F0A3C8C582C8CAC583CADFE9DEE780BE5B
:0109550000A1
:00000001FF
