:0C08C800020A000002080000020C000000
:03000B0002088C5C
:10088C00C0E0758CDB758AFFE50B450A701B20B147
:10089C00120509E50970020508640A4508700AB2D8
:0C08AC00A08006750800750900D0E0323D
:1008B80075A882758901758CDB758AFFD28C80FEDC
:03000000020800F3
:0C080000787FE4F6D8FD75810D020847F2
:10080C000208B8E493A3F8E493A34003F68001F242
:10081C0008DFF48029E493A3F85407240CC8C333ED
:10082C00C4540F4420C8834004F456800146F6DFBC
:10083C00E4800B01020408102040809008C8E47E7C
:10084C00019360BCA3FF543F30E509541FFEE493B1
:10085C00A360010ECF54C025E060A840B8E493A378
:10086C00FAE493A3F8E493A3C8C582C8CAC583CAA3
:10087C00F0A3C8C582C8CAC583CADFE9DEE780BE5B
:0108D4000023
:00000001FF
