:1008BA00414242415320414C49200046524F4D206B
:0908CA00504553484157415200CA
:10084B00D3EF9400EE6480948040257DFAEDD39431
:10085B00007480948040031D80F37DF8EDD39400E9
:10086B007480948040031D80F3EF1F70D31E80D0E3
:01087B00225A
:0208EC008F0873
:1008EE00E50854F0FF120912E508C454F0FF02099E
:0108FE0012E7
:100912008FA0C2A0C2A1D2A27F057E0012084BC244
:02092200A2220F
:0208FF008F0B5D
:10090100E50B54F0FF120924E50BC454F0FF020972
:0109110024C1
:100924008FA0D2A0C2A1D2A27F017E0012084BC226
:02093400A222FD
:10087C008B088A09890AAB08AA09A90A1208D3604D
:10088C0013050AE50A7002050914F91208D3FF12C0
:05089C0008FF80E222CC
:1008A1007F281208EC7F0C1208EC7F011208EC7F04
:0908B100831208EC7F060208EC3A
:100800001208A17BFF7A0879BA12087C7FFA7E0071
:1008100012084B7F801208EC7FC01208EC7BFF7A35
:100820000879C512087C7F207E0312084B7F0112D5
:1008300008EC7F411208FF7F421208FF7F42120836
:0B084000FF7F411208FF7F530208FFFA
:03000000020936BC
:0C093600787FE4F6D8FD75810B02080004
:1008D300BB010689828A83E0225002E722BBFE0223
:0908E300E32289828A83E4932256
:00000001FF
