:030000000209E210
:0C09E200787FE4F6D8FD758120020A2918
:0C0BF80054494D453A00444154453A0030
:020C1000C10021
:10080000120BEC120BB27FD0120A6EE4FF120A6ECA
:100810007F40120A6E7F28120A6E7F14120A6E7FC2
:1008200006120A6E7F02120A6E7F03120A6E7F188A
:10083000120A6E120BD0120BEC120BB27FD0120AFE
:100840006EE4FF120A6E120BB27FD1120A6E120A08
:10085000AE850C0953097F120BD0120BB27FD01258
:100860000A6E7F01120A6E120BB27FD1120A6E124B
:100870000AAE850C0B530B7F120BD0120BB27FD03C
:10088000120A6E7F02120A6E120BB27FD1120A6E2A
:10089000120AAE850C0E530E3F120BD0120BB27F14
:1008A000D0120A6E7F03120A6E120BB27FD1120AA7
:1008B0006E120AAE850C0A530A0F120BD0120BB23D
:1008C0007FD0120A6E7F04120A6E120BB27FD11211
:1008D0000A6E120AAE850C0853083F120BD0120B99
:1008E000B27FD0120A6E7F05120A6E120BB27FD150
:1008F000120A6E120AAE850C0D530D0F120BD01298
:100900000BB27FD0120A6E7F06120A6E120BB27FF4
:10091000D1120A6E120AAE850C0F530F3F120BD084
:09092000120B33120929020836FA
:100B3300AF0E120AE6AF0B120AE6AF09120AE6126B
:100B43000C04AF08120AE6AF0D120AE6AF0F120A41
:040B5300E6020C04A6
:100AE600EF540FFEEF54F0C4540FFF430630430794
:100AF600308F993099FDC2998E993099FDC29975BA
:070B0600993A3099FDC299F4
:010B0D0022C5
:10092900120B577BFF7A0B79F8120B0E7FC0120B53
:10093900DE7BFF7A0B79FE120B0EE50E540FF510D4
:10094900E50E54F0C4540FF5117F86120BDEE51144
:100959004430FF120B93E5104430FF120B937F3A9A
:10096900120B93E50B540FF510E50B120B89E510EB
:100979004430FF120B937F3A120B93E509540FF59C
:1009890010E509120B89E5104430FF120B937FC65D
:10099900120BDEE508540FF510E508120B89E51076
:1009A9004430FF120B937F3A120B93E50D540FF568
:1009B90010E50D120B89E5104430FF120B937F3AB5
:1009C900120B93E50F540FF510E50F120B89E51083
:0909D9004430FF120B93020BA144
:100BA100E4FFFE0FBF00010EE4B507F7EEB47DF3DD
:010BB1002221
:100B57007F38120BDE7F01120BDE7F10120BDE7F58
:090B67000C120BDE7F80020BDE94
:090C040075990D3099FDC2992289
:100A6E007510808F12E4F511C3E51194087480940B
:100A7E00805019E512551024FF92A1D2A0120C0D30
:100A8E00C2A0E51225E0F512051180DCA2A19200AC
:0F0A9E00D2A0120C0DC2A0300005120BD080FEAA
:010AAD002226
:0E0BD000D2A0C2A1120C0DD2A1C2A0020C0D27
:030C0D00000022C2
:100AAE00C201E4FFEFD39407748094805027D2A044
:100ABE00120C0DA2A19201C2A0300103430C01EF52
:100ACE00D39406748094805006E50C25E0F50C1244
:070ADE000C0D0F80CFAF0CDF
:010AE50022EE
:0F0BB200D2A0D2A1120C0DC2A1120C0DC2A02212
:0C0BEC00759850758920758DFDD28E2201
:100B0E008B128A138914AB12AA13A914120B7060DC
:100B1E00130514E5147002051314F9120B70FF126D
:050B2E000B9380E222A0
:0A0B890054F0C4540FF5114430FF7E
:0E0B93008F90D2A2C2A3D2A4120000C2A4224C
:0E0BDE008F90C2A2C2A3D2A4120000C2A42211
:0E0BC100E4FFFE0FBF00010EBE07F8BFD0F527
:010BCF002203
:1009EE00020800E493A3F8E493A34003F68001F217
:1009FE0008DFF48029E493A3F85407240CC8C3330A
:100A0E00C4540F4420C8834004F456800146F6DFD8
:100A1E00E4800B0102040810204080900C10E47E4C
:100A2E00019360BCA3FF543F30E509541FFEE493CD
:100A3E00A360010ECF54C025E060A840B8E493A394
:100A4E00FAE493A3F8E493A3C8C582C8CAC583CABF
:100A5E00F0A3C8C582C8CAC583CADFE9DEE780BE77
:010C120000E1
:100B7000BB010689828A83E0225002E722BBFE0283
:090B8000E32289828A83E49322B6
:00000001FF
