:0409F00002080000F9
:0300230002088C44
:10088C00C0E0C0F0C083C082C0D075D000C000C032
:10089C0001C002C003C004C005C006C00730981DCB
:1008AC0085991E740E2509F8A61E85080A85090B64
:1008BC00E51E640D7005F50C750D01C2980509E572
:1008CC000970020508E50D6401450C700A7F0112E0
:1008DC0009CC7F801209CCD007D006D005D004D02B
:1008EC0003D002D001D000D0D0D082D083D0F0D0B1
:0208FC00E032E8
:10094900D3EF9400EE6480948040257DFAEDD39432
:10095900007480948040031D80F37DF8EDD39400EA
:100969007480948040031D80F3EF1F70D31E80D0E4
:01097900225B
:1009CC008F80C2A6C2A5D2A77F057E00120949C29C
:0209DC00A72250
:1009DE008F80D2A6C2A5D2A77F017E00120949C27E
:0209EE00A7223E
:10097A008B218A228923AB21AA22A92312099F60EB
:10098A00130523E5237002052214F912099FFF12A9
:05099A0009DE80E222ED
:1009B8007F0C1209CC7F381209CC7F011209CC7F39
:0409C800800209CCD4
:1008FE0075A8901209B8758920758DFD759850D21E
:10090E008EE50D6401450C70F8F51FF520C3E5204A
:10091E00950BE50A6480F8E51F64809850E3740E29
:10092E002520F8E6FF1209DEE4F50CF50DF508F5C5
:0B093E00090520E52070D6051F80D2BF
:03000000020800F3
:0C080000787FE4F6D8FD758123020847DC
:10099F00BB010689828A83E0225002E722BBFE0256
:0909AF00E32289828A83E4932289
:10080C000208FEE493A3F8E493A34003F68001F2FC
:10081C0008DFF48029E493A3F85407240CC8C333ED
:10082C00C4540F4420C8834004F456800146F6DFBC
:10083C00E4800B01020408102040809009F0E47E53
:10084C00019360BCA3FF543F30E509541FFEE493B1
:10085C00A360010ECF54C025E060A840B8E493A378
:10086C00FAE493A3F8E493A3C8C582C8CAC583CAA3
:10087C00F0A3C8C582C8CAC583CADFE9DEE780BE5B
:0109F4000002
:00000001FF
