:0C0C090054494D453A00444154453A001E
:020C2400C1000D
:10080000120BFD120BC37FD0120A69E4FF120A69B2
:100810007F40120A697F28120A697F14120A697FD1
:1008200006120A697F02120A697F03120A697F1899
:10083000120A69120BE1120BFD120BC37FD0120AD0
:1008400069E4FF120A69120BC37FD1120A69120A06
:10085000A9850C0953097F120BE1120BC37FD0123B
:100860000A697F01120A69120BC37FD1120A691249
:100870000AA9850C0B530B7F120BE1120BC37FD01F
:10088000120A697F02120A69120BC37FD1120A6928
:10089000120AA9850C0E530E3F120BE1120BC37FF7
:1008A000D0120A697F03120A69120BC37FD1120AA0
:1008B00069120AA9850C0A530A0F120BE1120BC325
:1008C0007FD0120A697F04120A69120BC37FD1120A
:1008D0000A69120AA9850C0853083F120BE1120B92
:1008E000C37FD0120A697F05120A69120BC37FD138
:1008F000120A69120AA9850C0D530D0F120BE11291
:100900000BC37FD0120A697F06120A69120BC37FDC
:10091000D1120A69120AA9850C0F530F0F120BE1AD
:09092000120B3A120929020836F3
:100B3A00AF0E120B12AF0B120B12AF09120B1212DD
:100B4A000C15AF08120B12AF0D120B12AF0F120BCE
:040B5A0012020C1562
:100B1200EF540FFEEF54F0C4540FFF430630430767
:100B2200308F993099FDC2998E993099FDC299758D
:070B3200993A3099FDC299C8
:010B39002299
:10092900120B817BFF7A0C7909120B5E7FC0120BC7
:10093900EF7BFF7A0C790F120B5EE50E540FF51061
:10094900E50E54F0C4540FF5117F86120BEFE51133
:100959004430FF120BA4E5104430FF120BA47F3A78
:10096900120BA4E50B540FF510E50B120B9AE510C9
:100979004430FF120BA4E509540FF510E509120BD9
:100989009AE5104430FF120BA47FC6120BEFE5085D
:10099900540FF510E50E120B9AE5104430FF120BB7
:1009A900A47F3A120BA4E50D540FF510E50D120BB7
:1009B9009AE5104430FF120BA47F3A120BA4E50FFD
:1009C900540FF510E50F120B9AE5104430FF120B86
:0409D900A4020BB2B7
:100BB200E4FFFE0FBF00010EE4B507F7EEB47DF3CC
:010BC2002210
:100B81007F38120BEF7F01120BEF7F10120BEF7FFB
:090B91000C120BEF7F80020BEF48
:090C150075990D3099FDC2992278
:100A69007510808F12E4F511C3E511940874809410
:100A7900805019E512551024FF92A1D2A0120C1E24
:100A8900C2A0E51225E0F512051180DCA2A19200B1
:0F0A9900D2A0120C1EC2A0300005120BE180FE8D
:010AA800222B
:0E0BE100D2A0C2A1120C1ED2A1C2A0020C1EF4
:060C1E00120000020000BC
:100AA900C201E4F510D3E5109407748094805029AD
:100AB900D2A0120C1EA2A19201C2A0300103430CC4
:100AC90001D3E5109406748094805006E50C25E066
:0B0AD900F50C120C1E051080CCAF0CB9
:010AE40022EF
:0F0BC300D2A0D2A1120C1EC2A1120C1EC2A022DF
:0C0BFD00759850758920758DFDD28E22F0
:060B5E008B128A138914BA
:100B6400E4F515AB12AA13A9148515827583001236
:0C0B74000AE5FF6007120BA4051580E7DE
:010B80002252
:0A0B9A0054F0C4540FF5114430FF6D
:0E0BA4008F90D2A2C2A3D2A4120000C2A4223B
:0E0BEF008F90C2A2C2A3D2A4120000C2A42200
:0E0BD200E4FFFE0FBF00010EBE07F8BFD0F516
:010BE00022F2
:030000000209DD15
:0C09DD00787FE4F6D8FD758120020A2422
:100AE500BB010CE58229F582E5833AF583E02250C6
:100AF50006E92582F8E622BBFE06E92582F8E22210
:0D0B0500E58229F582E5833AF583E4932229
:1009E900020800E493A3F8E493A34003F68001F21C
:1009F90008DFF48029E493A3F85407240CC8C3330F
:100A0900C4540F4420C8834004F456800146F6DFDD
:100A1900E4800B0102040810204080900C24E47E3D
:100A2900019360BCA3FF543F30E509541FFEE493D2
:100A3900A360010ECF54C025E060A840B8E493A399
:100A4900FAE493A3F8E493A3C8C582C8CAC583CAC4
:100A5900F0A3C8C582C8CAC583CADFE9DEE780BE7C
:010C260000CD
:00000001FF
