:0E09630048656C6C6F20576F726C640A0D0053
:1008F60078097C007D007BFF7A0979637E007F0E94
:100906001208D0758920758DFD759850D28EE4F544
:1009160008D3E508940C748094805018740925084F
:10092600F8E6F5993099FDC2997F327E00120941A9
:0B093600050880DD7F147E00020941EF
:100941007D017C00C3ED9FEC9E50167B017A000B6C
:10095100BB00010ABA03F8BBE8F50DBD00010C802C
:01096100E3B2
:010962002272
:0300000002097181
:0C097100787FE4F6D8FD7581160208F6C8
:10080000E709F608DFFA8046E709F208DFFA803EDA
:1008100088828C83E709F0A3DFFA8032E309F608C7
:10082000DFFA8078E309F208DFFA807088828C832F
:10083000E309F0A3DFFA806489828A83E0A3F608E3
:10084000DFFA805889828A83E0A3F208DFFA804CBD
:1008500080D280FA80C680D4806980F28033801094
:1008600080A680EA809A80A880DA80E280CA8033FD
:1008700089828A83ECFAE493A3C8C582C8CCC58375
:10088000CCF0A3C8C582C8CCC583CCDFE9DEE78045
:100890000D89828A83E493A3F608DFF9ECFAA9F0C4
:1008A000EDFB2289828A83ECFAE0A3C8C582C8CC1A
:1008B000C583CCF0A3C8C582C8CCC583CCDFEADE33
:1008C000E880DB89828A83E493A3F208DFF980CC95
:1008D00088F0EF60010E4E60C388F0ED2402B4048E
:1008E0000050B9F582EB2402B4040050AF23234535
:0608F00082239008507302
:00000001FF
