:100A730032300053554E2C004D4F4E2C00545545EB
:100A83002C005745442C005448552C004652492C01
:0C0A9300005341542C0054696D65200094
:080A0E00D2A7C2A57F057E00FE
:100A1600D3EF9400EE6480948040257DFAEDD39464
:100A2600007480948040031D80F37DF8EDD394001C
:100A36007480948040031D80F3EF1F70D31E80D016
:010A4600228D
:070B45007F01120B4C7F80C1
:0A0B4C008F80C2A6120A0EC2A72273
:050B6700120B4CAF224F
:0A0B6C008F80D2A6120A0EC2A72243
:100AC8008B248A258926AB24AA25A926120B066021
:100AD800130526E5267002052514F9120B06FF12E8
:050AE8000B6C80E2220E
:100B33007F38120B4C7F0C120B4C120B457FC002FB
:020B43000B4C59
:10092900758920759850758DFDD28EE4F515C3E54E
:100939001594087480948050103098FD7421251501
:10094900F8A699C298051580E5120B4585210885F9
:10095900220953080FE508C454F0F50853090F4557
:1009690009F50EFD7F84120B7685240A85250B5324
:100979000A0FE50AC454F0F50A530B0F450BF50F9E
:10098900FD7F82120B7685270C85280D530C0FE508
:100999000CC454F0F50C530D0F450DF510FD7F8077
:0309A900020B76C8
:0B0BA700120B83120929120B5680FB71
:1009AC007F85120A478F147F83120A478F177F8126
:1009BC00120A478F187F8D120A478F197F89120AE6
:1009CC00478F127F87120A478F137F8B120A478F2C
:1009DC00117D68AF141208007D6DAF171208007DF1
:1009EC0073AF181208007D62AF111208007D79AF49
:1009FC00191208007D63AF121208007D64AF130258
:020A0C000800E0
:100A9F008F20D2B5E4F52AC3E52A94087480948098
:100AAF005016A20092B4120B1FC2B6120B21E520F2
:080ABF00C313F520052A80DFB6
:010AC700220C
:100A4700120A9FE4F521C3E521940874809480502D
:100A570016E520C313F520A2B49207120B1FC2B6E6
:0B0A6700120B21052180DFC2B5AF207B
:010A72002261
:0C0B8300120B33C2B5C2B6D2B4020AEDA8
:0C0B8F00758921758DFD759850D28E225D
:100AED00E4F521C3E521940E74809480500AE4FD51
:080AFD00FF120B25052180EB1F
:010B050022CD
:060B1F00D2B6E4FD7FFFE9
:0E0B25008F8C8D8AD28C308DFDC28CC28D22B9
:040800008D21AC0793
:10080400EC54F0F522C4540FF5222430F522EC54B4
:100814000FF5232430F523E521B468137F85120BEB
:10082400677F86120B4CAF23120B6C7F878016E513
:1008340021B46D197F88120B677F89120B4CAF238B
:10084400120B6C7F8A120B4C7F3A0208BEE521B46E
:10085400730E7F8B120B677F8C120B4CAF23805A65
:10086400E521B464187FC5120B677FC6120B4CAF29
:1008740023120B6C7FC7120B4C7F2D803DE521B4F6
:1008840063187FC8120B677FC9120B4CAF23120B7E
:100894006C7FCA120B4C7F2D8020E5216479701D7A
:1008A4007FCB120B4C7BFF7A0A7973120AC87FCD77
:1008B400120B677FCE120B4CAF23020B6CE5216445
:1008C4006270617FC0120B4CEC640170087BFF7A8C
:1008D4000A7976804CEC640270087BFF7A0A797B93
:1008E400803FEC640370087BFF7A0A79808032ECE5
:1008F400640470087BFF7A0A79858025EC640570AE
:10090400087BFF7A0A798A8018EC640670087BFFFA
:100914007A0A798F800BEC640770097BFF7A0A7975
:0409240094120AC857
:0109280022AC
:100B5600120B457BFF7A0A7999120AC81209AC80F2
:010B6600FB93
:0D0B76008D29120A9FAF29120A9FC2B522D5
:03000000020B9B55
:0C0B9B00787FE4F6D8FD75812A020BA7D4
:100B0600BB010689828A83E0225002E722BBFE02ED
:090B1600E32289828A83E4932220
:00000001FF
