:0808D50002080000020A000005
:03000B0002088C5C
:10088C00C0E0758CDB758AFFB2A00509E509700222
:10089C000508050BE50B7002050AE509640A450815
:1008AC007006B2A1F508F509E50B6464450A7006FB
:0908BC00B2A2F50AF50BD0E032FE
:1008C50075A882758901758CDB758AFFD28C80FECF
:03000000020800F3
:0C080000787FE4F6D8FD75810B020847F4
:10080C000208C5E493A3F8E493A34003F68001F235
:10081C0008DFF48029E493A3F85407240CC8C333ED
:10082C00C4540F4420C8834004F456800146F6DFBC
:10083C00E4800B01020408102040809008D5E47E6F
:10084C00019360BCA3FF543F30E509541FFEE493B1
:10085C00A360010ECF54C025E060A840B8E493A378
:10086C00FAE493A3F8E493A3C8C582C8CAC583CAA3
:10087C00F0A3C8C582C8CAC583CADFE9DEE780BE5B
:0108DD00001A
:00000001FF
