:10080000C2A4C2A3C2A2758006120860C2A4C2A379
:10081000D2A275805B120860C2A4D2A3C2A2758066
:100820004F120860C2A4D2A3D2A2758066120860DB
:10083000D2A4C2A3C2A275806D120860D2A4C2A3C2
:10084000D2A275807D120860D2A4D2A3C2A2758004
:1008500007120860D2A4D2A3D2A275807F020860DA
:10086000758901E4F58CF58AD28C308DFDC28CC27D
:020870008D22D7
:0300000002087281
:0C087200787FE4F6D8FD758109020800CB
:00000001FF
