:1007C90054696D6520004275727374204D6F6465BC
:1007D9002057726974650032300053554E2C004D14
:1007E9004F4E2C005455452C005745442C00544875
:1007F900552C004652492C005341542C000012122A
:050809002506071600A2
:06096300041738010E002C
:08095B0012084612075D80FB43
:10080E0078097C007D007BFF7A0879067E007F08E0
:10081E0012060D7FBE1208BBE4F50874092508F810
:10082E00E6FF1208BB7DF07FFF1209270508E508D9
:07083E00C3940840E6C2A4C8
:010845002290
:10075D007F011208F52086377F011208F57F801280
:10076D0008F57BFF7A0779C912089630854D120678
:10077D00D820B7F77F011208F57BFF7A0779CF12E2
:10078D00089612094212080E7F011208F580DC202E
:10079D0083047F6880052084057F6D0204272082F5
:1007AD00047F6480132081047F6D800C2080047F82
:0C07BD0079800520A7057F61120235221B
:1008460012094FD2B2D2B3D2B4D2B5C2A4C2A5D283
:10085600A6E4F50874172508F8E6FF1208F505085A
:0A086600E508C3940440ED020942C6
:020235008F0830
:10023700208503020426E508249F601824F4600C37
:1002470024F4600C241570137F87800A7F89800649
:100257007F8D80027F8B1208708F09208503020330
:10026700F2E508B479067B747D79801FE508B46DE3
:10027700067B747D638014E508B464067B747D6433
:100287008009E508B461097B747D62AF0912000338
:1002970030870302033FE509B43107E508B4640278
:1002A7008022E509B49907E508B479028016E509C3
:1002B700B41207E508B46D02800AE509B4070AE538
:1002C70008B46105E4F509805CE509B40905750919
:1002D700108052E509B419057509208048E509B46D
:1002E7002905750930803EE509B43905750940804F
:1002F70034E509B44905750950802AE509B459055B
:100307007509608020E509B469057509708016E5EF
:1003170009B47905750980800CE509B48905750963
:100327009080020509E4F50A7D187F181209270550
:100337000AE50AC3940340F0308603020262E50926
:10034700700BE508B464067509310203DAE5097034
:100357000AE508B479057509998078E509700AE511
:1003670008B46D05750912806AE509700AE508B4D5
:100377006105750907805CE509B4100575090980F1
:1003870052E509B420057509198048E509B4300517
:10039700750929803EE509B440057509398034E5BA
:1003A70009B45005750949802AE509B4600575093E
:1003B700598020E509B470057509698016E509B407
:1003C7008005750979800CE509B490057509898060
:1003D700021509E4F50AE50AC39403400302026221
:1003E7007D187F18120927050A80EBE508B47906FE
:1003F700AD097F8C8023E508B46D06AD097F888041
:1004070018E508B46406AD097F86800DE5086461C8
:0F0417006003020237AD097F8A120935020237EE
:0104260022B3
:020427008F083C
:1004290020850302053CE508B468047F858007E55B
:1004390008B46D077F831208708F0A2085030205AF
:1004490029E5087B74B468047D6880027D6DAF0A74
:1004590012000320875FE50AB40905750A10804078
:10046900E50AB41905750A208036E50AB42307E5BB
:1004790008B468028023E50AB42905750A3080208A
:10048900E50AB43905750A408016E50AB4490575C7
:100499000A50800CE50AB45905E4F50A8002050AF8
:1004A900E4F509E509C3940350917D187F181209F1
:1004B90027050980EE208683E50AB41005750A0927
:1004C9008046E50A700AE508B46805750A2380388C
:1004D900E50A700AE508B46D05750A59802AE50A26
:1004E900B42005750A198020E50AB43005750A2972
:1004F9008016E50AB44005750A39800CE50AB4503E
:1005090005750A498002150AE4F509E509C394034A
:1005190040030204447D187F18120927050980EB5E
:10052900E508AD0AB468047F8480027F8212093528
:0305390002042990
:01053C00229C
:1006D8007F851208708F081209237F831208708F94
:1006E800091209237F811208708F0A1209237F8D4E
:1006F8001208708F0B1209237F891208708F0C1251
:1007080009237F871208708F0D1209237F8B120827
:10071800708F0E1209237B747D68AF081200037B6B
:10072800747D6DAF091200037B747D73AF0A1200EC
:10073800037B747D62AF0E1200037B747D79AF0B6F
:100748001200037B747D63AF0C1200037B747D641D
:05075800AF0D020003DB
:1008BB008F20D2A4E4F511A20092A6120921C2A5A1
:1008CB00120923E520C313F5200511E511C3940884
:0208DB0040E5F6
:0108DD0022F8
:100870001208BBE4F50FE520C313F520A2A69207EA
:10088000120921C2A5120923050FE50FC3940840E0
:05089000E5C2A4AF2049
:010895002240
:0D0935008D0B1208BBAF0B1208BBC2A42231
:0C094F00758921758DFD759850D28E229F
:06092100D2A5E4FD7FFFFA
:0E0927008F8C8D8AD28C308DFDC28CC28D22B9
:0C094200E4FEE4FDFF1209270EBE0EF6D5
:01094E002286
:0C0003008F0F8D10EB646860030200ECAE
:10000F00E50F75F06484F511E50F75F0648485F0E4
:10001F000FE50F75F00A84F512E50F75F00A848568
:10002F00F00F850F13431130431230431330E51097
:10003F00646170227FC91208F5E51164306005AF65
:10004F00111208DEE511B43006E51264306057AFC7
:10005F00121208DE8050E510646270247FCB120804
:10006F00F57F2E1208DEAF111208DEAF121208DE76
:10007F00E51364306005AF131208DE7F250201CA55
:10008F00E510646370257F851208F5E51164306013
:10009F0005AF111208DEE511B43006E512643060C9
:1000AF0005AF121208DEAF130201CAE510646460D7
:1000BF00030202347F871208F57F2E1208DEAF117C
:1000CF001208DEAF121208DEE51364306005AF13BD
:0A00DF001208DE7FDF1208DE7F4307
:0300E9000201CA47
:1000EC00E50F54F0F511C4540FF511431130E50F21
:1000FC00540FF512431230E510B4681E7F851208B8
:10010C00F5AF111208DE7F861208F5AF121208DE69
:10011C007F871208F57F3A0201CAE510B46D1E7F85
:10012C00881208F5AF111208DE7F891208F5AF129C
:10013C001208DE7F8A1208F57F3A0201CAE510B474
:10014C0073137F8B1208F5AF111208DE7F8C120827
:10015C00F5AF128069E510B4641D7FC51208F5AFC8
:10016C00111208DE7FC61208F5AF121208DE7FC727
:10017C001208F57F2D8047E510B4631D7FC8120867
:10018C00F5AF111208DE7FC91208F5AF121208DEA6
:10019C007FCA1208F57F2D8025E510647970227FC7
:1001AC00CB1208F57BFF7A0779E01208967FCD1207
:1001BC0008F5AF111208DE7FCE1208F5AF12020857
:1001CC00DEE510646270617FC01208F5E50FB401C2
:1001DC00087BFF7A0779E3804CE50FB402087BFFBC
:1001EC007A0779E8803FE50FB403087BFF7A07793B
:1001FC00ED8032E50FB404087BFF7A0779F2802595
:10020C00E50FB405087BFF7A0779F78018E50FB482
:10021C0006087BFF7A0779FC800BE50FB407097B96
:08022C00FF7A0879011208961F
:0102340022A7
:100896008B148A158916AB14AA15A916120633608D
:1008A600130516E5167002051514F9120633FF1224
:0508B60008DE80E222D3
:10090C00C2A2D2A130970DC2A07DFF7FF912092798
:05091C00D2A080F022D2
:1008DE00AE0712090C8E90D2A2C2A1D2A07DFF7FCC
:0708EE00F9120927C2A02244
:1008F500AE0712090C8E90C2A2C2A1D2A07DFF7FC5
:07090500F9120927C2A0222C
:0300000002064CA9
:0C064C00787FE4F6D8FD7581200206934B
:10053D00E709F608DFFA8046E709F208DFFA803EA0
:10054D0088828C83E709F0A3DFFA8032E309F6088D
:10055D00DFFA8078E309F208DFFA807088828C83F5
:10056D00E309F0A3DFFA806489828A83E0A3F608A9
:10057D00DFFA805889828A83E0A3F208DFFA804C83
:10058D0080D280FA80C680D4806980F2803380105A
:10059D0080A680EA809A80A880DA80E280CA8033C3
:1005AD0089828A83ECFAE493A3C8C582C8CCC5833B
:1005BD00CCF0A3C8C582C8CCC583CCDFE9DEE7800B
:1005CD000D89828A83E493A3F608DFF9ECFAA9F08A
:1005DD00EDFB2289828A83ECFAE0A3C8C582C8CCE0
:1005ED00C583CCF0A3C8C582C8CCC583CCDFEADEF9
:1005FD00E880DB89828A83E493A3F208DFF980CC5B
:10060D0088F0EF60010E4E60C388F0ED2402B40453
:10061D000050B9F582EB2402B4040050AF232345FA
:06062D00822390058D738D
:10063300BB010689828A83E0225002E722BBFE02C5
:09064300E32289828A83E49322F8
:1006580002095BE493A3F8E493A34003F68001F254
:1006680008DFF48029E493A3F85407240CC8C333A3
:10067800C4540F4420C8834004F456800146F6DF72
:10068800E4800B0102040810204080900963E47E96
:10069800019360BCA3FF543F30E509541FFEE49367
:1006A800A360010ECF54C025E060A840B8E493A32E
:1006B800FAE493A3F8E493A3C8C582C8CAC583CA59
:1006C800F0A3C8C582C8CAC583CADFE9DEE780BE11
:01096900008D
:00000001FF
