:1009CD0002190000021D0000023300001008001C77
:1009DD00001800140010000C000800040000141F83
:1009ED00003F0006005B004F0066006D007D0007B4
:0409FD00007F006710
:060A3100C2A17F017E005E
:100A3700E4FDFCC3ED9FEC9E5015E4FBFA0BBB00F5
:0F0A4700010AEB64724A70F50DBD00010C80E4EA
:010A5600227D
:0F0ACC00C2A0120A33D2A1120A37C2A1D2A022AD
:100A9A00D2A0120A31D2A1120A37C2A0120A37C250
:020AAA00A12287
:100AAC00120A31C2A0120A37D2A1120A37D2A022DE
:100A7D00E4FBFAEF3392A0D2A1C2A1EF25E0FF0B68
:0D0A8D00BB00010AEB64084A70E9020ACCC4
:10098E00E4F537F538D2A0F518F537F538120A33F5
:10099E00D2A1A2A0E4334218C3E5389407E53794F8
:1009AE00005006E51825E0F518C2A10538E53870A7
:0E09BE00020537C39408E537940040D1AF1806
:0109CC002208
:100A57008F368D37A903120A9AE9C31344A0FF12F0
:100A67000A7DAF37120A7DAF36120A7D120AAC7FB4
:060A7700017E00020A37B7
:040A02008F36A9057D
:100A0600120A9AE925E044A0FF120A7DAF36120ABF
:100A16007D120A9AE925E044A1FF120A7D12098E89
:0A0A2600A907120AAC120A33AF014F
:010A300022A3
:100ABC0075A882758901758C4B758AFDD28C80FE68
:03000B00020800E8
:10080000C0E0C083C082C0D075D000C000C001C0AD
:1008100002C003C004C005C006C007051AE51A706F
:100820000205196414451960030208E30534E53430
:1008300070020533FFE4FBFD120A57E4FDFF120AC4
:1008400002EF3395E0F5338F34707AE534B40A0063
:100850005073900859F828287302087702087F021D
:10086000088702088F02089702089F0208A702085B
:10087000AF0208B70208BF8509A0852080804685A1
:1008800009A0852280803E8509A085248080368548
:1008900009A0852680802E8509A085288080268550
:1008A00009A0852A80801E8509A0852C8080168558
:1008B00009A0852E80800E8509A085308080068560
:1008C00009A0853280C3E5349408E5339400400DD7
:1008D000753300753400E4FBFDFF120A57751900EB
:1008E000751A00758C4B758AFDD007D006D005D0DF
:1008F00004D003D002D001D000D0D0D082D083D099
:02090000E032E3
:03000000020902F0
:0C090200787FE4F6D8FD758138020949C1
:10090E00020ABCE493A3F8E493A34003F68001F239
:10091E0008DFF48029E493A3F85407240CC8C333EA
:10092E00C4540F4420C8834004F456800146F6DFB9
:10093E00E4800B01020408102040809009CDE47E73
:10094E00019360BCA3FF543F30E509541FFEE493AE
:10095E00A360010ECF54C025E060A840B8E493A375
:10096E00FAE493A3F8E493A3C8C582C8CAC583CAA0
:10097E00F0A3C8C582C8CAC583CADFE9DEE780BE58
:010A010000F4
:00000001FF
