:030000000208985B
:0C089800787FE4F6D8FD75811A0208DFB5
:0E0B0600430074656D706572617475726500F0
:0C0B14000214000002160000020900009C
:1009AE00D2AC758920759850758DFDD28EE4F516F2
:1009BE00F5173098FD740B2517F8A699C2980517F0
:1009CE00E517700205166403451670E6850B108553
:0609DE000C11850D122230
:0A0B21008F80D2A6120A91C2A7220B
:100A0C008B188A19891AAB18AA19A91A120AC46068
:100A1C0013051AE51A7002051914F9120AC4FF120B
:050A2C000B2180E22215
:080A9100D2A7C2A57F057E007B
:100A9900E4FDFCC3ED9FEC9E50070DBD00010C80E9
:010AA900F25A
:010AAA002229
:100A5600E4FDFCC3ED9FEC9E5015E4FBFA0BBB00D6
:0F0A6600010AEB647D4A70F50DBD00010C80E4C0
:010A7500225E
:070AF400120A317F0A7E00A7
:0B0AFB00EF1FAC0670011E4C70F622CD
:100A7600D2B77F087E00120AFBC2B77F417E001202
:0B0A86000AFBD2B77F147E00020AFBBF
:1009E400E4FB7D08EDD39400748094804017C2B773
:1009F400EB13FBD2B730B7034303807F047E0012AE
:070A04000AFB1D80DFAF03B8
:010A0B0022C8
:020A3100AD070F
:100A33007B08EBD39400748094804016C2B7ED1307
:100A430092B77F057E00120AFBD2B7EDC313FD1BDD
:020A530080E041
:010A5500227E
:10097300E4FAFF120A767FCC120A317F44120AF49A
:10098300120A767FCC120A317FBE120AF41209E4EE
:10099300AA071209E4EFFE7C00E42AFFEC3EC4F848
:0A09A30054F0C8EFC4540F48F50EDD
:0109AD002227
:100AAB007F38120B2B7F0C120B2B7F01120B2B7F22
:090ABB0080120B2B7FC0020B2BF3
:100924007FC0120B2BAF10120B21AF11120B21AF92
:1009340012120B217F40120B2B7F03120B217F031A
:10094400120B21E4FF120B21E4FF120B21E4FF122E
:100954000B21E4FF120B21E4FF120B217FC3120BC6
:0F0964002BE4FF120B217BFF7A0B7906020A0CA2
:0A0B2B008F80C2A6120A91C2A72211
:100ADD00120AABD2AF758901D2A9758CFF758A0642
:070AED00D28C1209AE80FE5D
:03000B00020800E8
:10080000C0E0C0F0C083C082C0D075D000C000C0BE
:1008100001C002C003C004C005C006C007C3E51084
:1008200094317480948040047F0180027F00E51140
:10083000C394337480948040047E0180027E00EE75
:100840004F600BC2957F017E00120A56D295D29559
:10085000050AE50A70020509B4A01CE509B40F17E2
:100860007F80120B2B7BFF7A0B7908120A0C12097E
:1008700024750900750A00758CFF758A06D007D0AB
:1008800006D005D004D003D002D001D000D0D0D003
:0808900082D083D0F0D0E032E9
:1008A400020ADDE493A3F8E493A34003F68001F283
:1008B40008DFF48029E493A3F85407240CC8C33355
:1008C400C4540F4420C8834004F456800146F6DF24
:1008D400E4800B0102040810204080900B14E47E95
:1008E400019360BCA3FF543F30E509541FFEE49319
:1008F400A360010ECF54C025E060A840B8E493A3E0
:10090400FAE493A3F8E493A3C8C582C8CAC583CA0A
:10091400F0A3C8C582C8CAC583CADFE9DEE780BEC2
:010B200000D4
:100AC400BB010689828A83E0225002E722BBFE0230
:090AD400E32289828A83E4932263
:00000001FF
