:0E0A2A0053656E74203A0052656164203A00F4
:070984001209E87F057E0067
:10098B00E4FDFCC3ED9FEC9E5015E4FBFA0BBB00A2
:0F099B00010ABA04F8BBFBF50DBD00010C80E4A6
:0109AA00222A
:1009E8008F80D2A7C2A6C2A57F017E0012098BC242
:0209F800A72234
:1009FA008F80D2A7D2A6C2A57F017E0012098BC220
:020A0A00A72221
:060959008B0F8A108911CA
:10095F00E4F512F513AB0FAA10A9118513828512B6
:10096F008312092CFF600D1209FA0513E51370E5C8
:04097F00051280E1FC
:010983002251
:1009D2007F381209847F0F1209847F801209E87F11
:0609E200057E0002098BF6
:0B0A4400D2A1120000120000C2A1228B
:0F0A0C00D2A0D2A1120000120000C2A0C2A122EB
:0F0A1B00C2A0D2A1120000120000D2A0C2A122DC
:1008BD008F11E4F50FF510E511C413131354012432
:1008CD00FF92A0E51125E0F511D2A1120000120052
:1008DD0000C2A10510E5107002050FC39408E50FC5
:0A08ED00940040D3A2A09200C2A024
:0108F70022DE
:1008F800D2A0E4F508F50FF510E50825E0F508D2D3
:10090800A112000012000030A0020508C2A10510C3
:10091800E5107002050FC39408E50F940040DAC291
:03092800A0AF0875
:01092B0022A9
:10086B00120A0C7FA01208BD120A44E4FF1208BD45
:10087B00120A447F051208BD120A447F411208BDBB
:10088B00120A44120A1B200024D2817F647E0012BC
:10089B00098BC28112098B7F861209E87F351209F9
:1008AB00FA7F871209E87F411209FA8002D281028E
:0208BB000A44ED
:10080000120A0C7FA01208BD120A44E4FF1208BDB0
:10081000120A44120A0C7FA11208BD120A441208DF
:10082000F88F0D120A441208F88F0E120A44120AA9
:100830001BE50D6405701FC2837F64FE12098BD215
:100840008312098BE50D2430F5097FC61209E8AF44
:10085000091209FA8002D283E50E6441700A7FC74B
:0B0860001209E8AF0E1209FA020A4468
:1009AB001209D27BFF7A0A792A1209597FC01209E0
:1009BB00E87BFF7A0A7931120959E4F50AF50B1233
:0709CB00086B12080080F820
:03000000020A38B9
:0C0A3800787FE4F6D8FD7581200209AB40
:10092C00BB010CE58229F582E5833AF583E0225080
:10093C0006E92582F8E622BBFE06E92582F8E222CA
:0D094C00E58229F582E5833AF583E49322E4
:00000001FF
